:100000000C9434000C9451000C9451000C94510049
:100010000C9451000C9451000C9451000C9451001C
:100020000C9451000C9451000C9451000C9451000C
:100030000C9451000C9451000C9451000C945100FC
:100040000C9451000C9451000C9451000C945100EC
:100050000C9451000C9451000C9451000C945100DC
:100060000C9451000C94510011241FBECFEFD8E026
:10007000DEBFCDBF11E0A0E0B1E0E0E6F1E002C0FC
:1000800005900D92A234B107D9F721E0A2E4B1E0C6
:1000900001C01D92A334B207E1F70E9453000C94F3
:1000A000AE000C9400009FB7F8948091420180301C
:1000B00041F099235AF0803061F4229A2A9A83B150
:1000C000FFCF21E0209342019923AAF77894803052
:1000D000A1F38BE091E00E94A700FFCFCF93DF93C5
:1000E000CDB7DEB726970FB6F894DEBF0FBECDBFF3
:1000F0007E836D839C838B8381E090E09A838983E8
:10010000CE0101960E946D00CF93DF93CDB7DEB78D
:1001100060970FB6F894DEBF0FBECDBF20E030E091
:100120003A872987E1E0F0E0FC83EB83DE011D964E
:10013000BA83A98338872F83FE83ED83788B6F87FB
:100140009E878D87CE010196BA010E946E00AC0198
:1001500087E191E06BE270E00E948400F894FFCFA9
:100160007372632F6D61696E2E727300010B000D47
:100170000000002200000063616C6C656420604F29
:100180007074696F6E3A3A756E7772617028296083
:10019000206F6E206120604E6F6E65602076616C0E
:0201A000756583
:00000001FF
